{
  "contractName": "BAVPM",
  "abi": [
    {
      "inputs": [],
      "payable": true,
      "stateMutability": "payable",
      "type": "constructor"
    },
    {
      "constant": true,
      "inputs": [
        {
          "internalType": "uint8",
          "name": "",
          "type": "uint8"
        }
      ],
      "name": "PlatoonIDtoPL",
      "outputs": [
        {
          "internalType": "address",
          "name": "",
          "type": "address"
        }
      ],
      "payable": false,
      "stateMutability": "view",
      "type": "function"
    },
    {
      "constant": true,
      "inputs": [
        {
          "internalType": "uint8",
          "name": "",
          "type": "uint8"
        }
      ],
      "name": "PlatoonMember",
      "outputs": [
        {
          "internalType": "address",
          "name": "",
          "type": "address"
        }
      ],
      "payable": false,
      "stateMutability": "view",
      "type": "function"
    },
    {
      "constant": true,
      "inputs": [
        {
          "internalType": "address",
          "name": "",
          "type": "address"
        }
      ],
      "name": "ids",
      "outputs": [
        {
          "internalType": "bytes",
          "name": "",
          "type": "bytes"
        }
      ],
      "payable": false,
      "stateMutability": "view",
      "type": "function"
    },
    {
      "constant": true,
      "inputs": [
        {
          "internalType": "uint8",
          "name": "",
          "type": "uint8"
        }
      ],
      "name": "intraMessage",
      "outputs": [
        {
          "internalType": "string",
          "name": "",
          "type": "string"
        }
      ],
      "payable": false,
      "stateMutability": "view",
      "type": "function"
    },
    {
      "constant": true,
      "inputs": [
        {
          "internalType": "uint8",
          "name": "",
          "type": "uint8"
        }
      ],
      "name": "message",
      "outputs": [
        {
          "internalType": "string",
          "name": "",
          "type": "string"
        }
      ],
      "payable": false,
      "stateMutability": "view",
      "type": "function"
    },
    {
      "constant": true,
      "inputs": [
        {
          "internalType": "uint256",
          "name": "",
          "type": "uint256"
        }
      ],
      "name": "tickets",
      "outputs": [
        {
          "internalType": "uint256",
          "name": "r",
          "type": "uint256"
        },
        {
          "internalType": "uint256",
          "name": "s",
          "type": "uint256"
        }
      ],
      "payable": false,
      "stateMutability": "view",
      "type": "function"
    },
    {
      "constant": false,
      "inputs": [
        {
          "internalType": "uint8",
          "name": "_category",
          "type": "uint8"
        },
        {
          "internalType": "uint8",
          "name": "_PlatoonID",
          "type": "uint8"
        },
        {
          "internalType": "uint8",
          "name": "_id",
          "type": "uint8"
        },
        {
          "internalType": "uint256",
          "name": "_r",
          "type": "uint256"
        },
        {
          "internalType": "uint256",
          "name": "_s",
          "type": "uint256"
        }
      ],
      "name": "BAVPM_AddNode",
      "outputs": [],
      "payable": true,
      "stateMutability": "payable",
      "type": "function"
    },
    {
      "constant": false,
      "inputs": [
        {
          "internalType": "address",
          "name": "_addr",
          "type": "address"
        },
        {
          "internalType": "uint8",
          "name": "_PlatoonID",
          "type": "uint8"
        },
        {
          "internalType": "uint8",
          "name": "_id",
          "type": "uint8"
        }
      ],
      "name": "BAVPM_SaveNode",
      "outputs": [],
      "payable": false,
      "stateMutability": "nonpayable",
      "type": "function"
    },
    {
      "constant": false,
      "inputs": [
        {
          "internalType": "uint8",
          "name": "_PlatoonID",
          "type": "uint8"
        },
        {
          "internalType": "uint8",
          "name": "_id",
          "type": "uint8"
        }
      ],
      "name": "removeNode",
      "outputs": [],
      "payable": false,
      "stateMutability": "nonpayable",
      "type": "function"
    },
    {
      "constant": false,
      "inputs": [
        {
          "internalType": "uint8",
          "name": "_sender",
          "type": "uint8"
        },
        {
          "internalType": "uint8",
          "name": "_PlatoonID",
          "type": "uint8"
        },
        {
          "internalType": "string",
          "name": "msg",
          "type": "string"
        }
      ],
      "name": "BAVPM_Send",
      "outputs": [],
      "payable": false,
      "stateMutability": "nonpayable",
      "type": "function"
    },
    {
      "constant": true,
      "inputs": [
        {
          "internalType": "uint8",
          "name": "PlatoonID",
          "type": "uint8"
        }
      ],
      "name": "BAVPM_ReadMSG",
      "outputs": [
        {
          "internalType": "string",
          "name": "",
          "type": "string"
        }
      ],
      "payable": false,
      "stateMutability": "view",
      "type": "function"
    },
    {
      "constant": false,
      "inputs": [
        {
          "internalType": "uint8",
          "name": "sender",
          "type": "uint8"
        },
        {
          "internalType": "uint8",
          "name": "grpFrom",
          "type": "uint8"
        },
        {
          "internalType": "uint8",
          "name": "PlatoonIDTo",
          "type": "uint8"
        },
        {
          "internalType": "string",
          "name": "msg",
          "type": "string"
        }
      ],
      "name": "sendToOtherPlatoon",
      "outputs": [],
      "payable": false,
      "stateMutability": "nonpayable",
      "type": "function"
    },
    {
      "constant": true,
      "inputs": [
        {
          "internalType": "uint8",
          "name": "myPlatoonID",
          "type": "uint8"
        }
      ],
      "name": "readMsgFromOtherPlatoon",
      "outputs": [
        {
          "internalType": "string",
          "name": "",
          "type": "string"
        }
      ],
      "payable": false,
      "stateMutability": "view",
      "type": "function"
    },
    {
      "constant": false,
      "inputs": [
        {
          "internalType": "uint8",
          "name": "v1",
          "type": "uint8"
        },
        {
          "internalType": "uint8",
          "name": "v2",
          "type": "uint8"
        }
      ],
      "name": "BAVPM_Concat2Bytes",
      "outputs": [
        {
          "internalType": "bytes",
          "name": "",
          "type": "bytes"
        }
      ],
      "payable": false,
      "stateMutability": "nonpayable",
      "type": "function"
    },
    {
      "constant": false,
      "inputs": [
        {
          "internalType": "bytes",
          "name": "inputData",
          "type": "bytes"
        },
        {
          "internalType": "bytes32",
          "name": "_r",
          "type": "bytes32"
        },
        {
          "internalType": "bytes32",
          "name": "_s",
          "type": "bytes32"
        },
        {
          "internalType": "address",
          "name": "PlatoonLeaderAddr",
          "type": "address"
        }
      ],
      "name": "BAVPM_Verify",
      "outputs": [
        {
          "internalType": "bool",
          "name": "",
          "type": "bool"
        }
      ],
      "payable": false,
      "stateMutability": "nonpayable",
      "type": "function"
    },
    {
      "constant": true,
      "inputs": [
        {
          "internalType": "address",
          "name": "a",
          "type": "address"
        }
      ],
      "name": "BAVPM_FromAddressToBytes",
      "outputs": [
        {
          "internalType": "bytes",
          "name": "b",
          "type": "bytes"
        }
      ],
      "payable": false,
      "stateMutability": "view",
      "type": "function"
    },
    {
      "constant": false,
      "inputs": [
        {
          "internalType": "bytes",
          "name": "src",
          "type": "bytes"
        }
      ],
      "name": "BAVPM_FromBytesToBytes32",
      "outputs": [
        {
          "internalType": "bytes32",
          "name": "res",
          "type": "bytes32"
        }
      ],
      "payable": false,
      "stateMutability": "nonpayable",
      "type": "function"
    },
    {
      "constant": false,
      "inputs": [
        {
          "internalType": "string",
          "name": "_a",
          "type": "string"
        },
        {
          "internalType": "string",
          "name": "_b",
          "type": "string"
        }
      ],
      "name": "strConcat",
      "outputs": [
        {
          "internalType": "string",
          "name": "",
          "type": "string"
        }
      ],
      "payable": false,
      "stateMutability": "nonpayable",
      "type": "function"
    }
  ],
  "bytecode": "0x60806040526126ff806100136000396000f3fe6080604052600436106101095760003560e01c8063a736a56811610095578063d67a196e11610064578063d67a196e146109bc578063f467f2a114610a07578063f627f16f14610ae9578063fb6ceef514610ba0578063ff74927b14610c6a57610109565b8063a736a56814610626578063b287d99a14610702578063b466536a14610816578063c150af8c146108cd57610109565b806350b44712116100dc57806350b447121461038b5780636b4da54f146103e157806373881d9c146104a55780637d925df9146105045780639bc59d97146105bb57610109565b80630bf21c091461010e5780630dd906c81461018c5780631847c06b146102435780633cc660ab1461030d575b600080fd5b34801561011a57600080fd5b5061014a6004803603602081101561013157600080fd5b81019080803560ff169060200190929190505050610e42565b604051808273ffffffffffffffffffffffffffffffffffffffff1673ffffffffffffffffffffffffffffffffffffffff16815260200191505060405180910390f35b34801561019857600080fd5b506101c8600480360360208110156101af57600080fd5b81019080803560ff169060200190929190505050610e75565b6040518080602001828103825283818151815260200191508051906020019080838360005b838110156102085780820151818401526020810190506101ed565b50505050905090810190601f1680156102355780820380516001836020036101000a031916815260200191505b509250505060405180910390f35b34801561024f57600080fd5b506102926004803603602081101561026657600080fd5b81019080803573ffffffffffffffffffffffffffffffffffffffff169060200190929190505050610f25565b6040518080602001828103825283818151815260200191508051906020019080838360005b838110156102d25780820151818401526020810190506102b7565b50505050905090810190601f1680156102ff5780820380516001836020036101000a031916815260200191505b509250505060405180910390f35b34801561031957600080fd5b506103496004803603602081101561033057600080fd5b81019080803560ff169060200190929190505050610fd5565b604051808273ffffffffffffffffffffffffffffffffffffffff1673ffffffffffffffffffffffffffffffffffffffff16815260200191505060405180910390f35b34801561039757600080fd5b506103c4600480360360208110156103ae57600080fd5b8101908080359060200190929190505050611008565b604051808381526020018281526020019250505060405180910390f35b3480156103ed57600080fd5b5061042a6004803603604081101561040457600080fd5b81019080803560ff169060200190929190803560ff169060200190929190505050611039565b6040518080602001828103825283818151815260200191508051906020019080838360005b8381101561046a57808201518184015260208101905061044f565b50505050905090810190601f1680156104975780820380516001836020036101000a031916815260200191505b509250505060405180910390f35b610502600480360360a08110156104bb57600080fd5b81019080803560ff169060200190929190803560ff169060200190929190803560ff169060200190929190803590602001909291908035906020019092919050505061110d565b005b34801561051057600080fd5b506105406004803603602081101561052757600080fd5b81019080803560ff1690602001909291905050506114d9565b6040518080602001828103825283818151815260200191508051906020019080838360005b83811015610580578082015181840152602081019050610565565b50505050905090810190601f1680156105ad5780820380516001836020036101000a031916815260200191505b509250505060405180910390f35b3480156105c757600080fd5b50610624600480360360608110156105de57600080fd5b81019080803573ffffffffffffffffffffffffffffffffffffffff169060200190929190803560ff169060200190929190803560ff16906020019092919050505061166e565b005b34801561063257600080fd5b506106ec6004803603602081101561064957600080fd5b810190808035906020019064010000000081111561066657600080fd5b82018360208201111561067857600080fd5b8035906020019184600183028401116401000000008311171561069a57600080fd5b91908080601f016020809104026020016040519081016040528093929190818152602001838380828437600081840152601f19601f8201169050808301925050505050505091929192905050506116cf565b6040518082815260200191505060405180910390f35b34801561070e57600080fd5b506107fc6004803603608081101561072557600080fd5b810190808035906020019064010000000081111561074257600080fd5b82018360208201111561075457600080fd5b8035906020019184600183028401116401000000008311171561077657600080fd5b91908080601f016020809104026020016040519081016040528093929190818152602001838380828437600081840152601f19601f8201169050808301925050505050505091929192908035906020019092919080359060200190929190803573ffffffffffffffffffffffffffffffffffffffff1690602001909291905050506116dd565b604051808215151515815260200191505060405180910390f35b34801561082257600080fd5b506108526004803603602081101561083957600080fd5b81019080803560ff169060200190929190505050611843565b6040518080602001828103825283818151815260200191508051906020019080838360005b83811015610892578082015181840152602081019050610877565b50505050905090810190601f1680156108bf5780820380516001836020036101000a031916815260200191505b509250505060405180910390f35b3480156108d957600080fd5b506109ba600480360360808110156108f057600080fd5b81019080803560ff169060200190929190803560ff169060200190929190803560ff1690602001909291908035906020019064010000000081111561093457600080fd5b82018360208201111561094657600080fd5b8035906020019184600183028401116401000000008311171561096857600080fd5b91908080601f016020809104026020016040519081016040528093929190818152602001838380828437600081840152601f19601f8201169050808301925050505050505091929192905050506118f3565b005b3480156109c857600080fd5b50610a05600480360360408110156109df57600080fd5b81019080803560ff169060200190929190803560ff169060200190929190505050611b3f565b005b348015610a1357600080fd5b50610ae760048036036060811015610a2a57600080fd5b81019080803560ff169060200190929190803560ff16906020019092919080359060200190640100000000811115610a6157600080fd5b820183602082011115610a7357600080fd5b80359060200191846001830284011164010000000083111715610a9557600080fd5b91908080601f016020809104026020016040519081016040528093929190818152602001838380828437600081840152601f19601f820116905080830192505050505050509192919290505050611c96565b005b348015610af557600080fd5b50610b2560048036036020811015610b0c57600080fd5b81019080803560ff169060200190929190505050611ffe565b6040518080602001828103825283818151815260200191508051906020019080838360005b83811015610b65578082015181840152602081019050610b4a565b50505050905090810190601f168015610b925780820380516001836020036101000a031916815260200191505b509250505060405180910390f35b348015610bac57600080fd5b50610bef60048036036020811015610bc357600080fd5b81019080803573ffffffffffffffffffffffffffffffffffffffff169060200190929190505050612286565b6040518080602001828103825283818151815260200191508051906020019080838360005b83811015610c2f578082015181840152602081019050610c14565b50505050905090810190601f168015610c5c5780820380516001836020036101000a031916815260200191505b509250505060405180910390f35b348015610c7657600080fd5b50610dc760048036036040811015610c8d57600080fd5b8101908080359060200190640100000000811115610caa57600080fd5b820183602082011115610cbc57600080fd5b80359060200191846001830284011164010000000083111715610cde57600080fd5b91908080601f016020809104026020016040519081016040528093929190818152602001838380828437600081840152601f19601f82011690508083019250505050505050919291929080359060200190640100000000811115610d4157600080fd5b820183602082011115610d5357600080fd5b80359060200191846001830284011164010000000083111715610d7557600080fd5b91908080601f016020809104026020016040519081016040528093929190818152602001838380828437600081840152601f19601f8201169050808301925050505050505091929192905050506122b8565b6040518080602001828103825283818151815260200191508051906020019080838360005b83811015610e07578082015181840152602081019050610dec565b50505050905090810190601f168015610e345780820380516001836020036101000a031916815260200191505b509250505060405180910390f35b60016020528060005260406000206000915054906101000a900473ffffffffffffffffffffffffffffffffffffffff1681565b60036020528060005260406000206000915090508054600181600116156101000203166002900480601f016020809104026020016040519081016040528092919081815260200182805460018160011615610100020316600290048015610f1d5780601f10610ef257610100808354040283529160200191610f1d565b820191906000526020600020905b815481529060010190602001808311610f0057829003601f168201915b505050505081565b60006020528060005260406000206000915090508054600181600116156101000203166002900480601f016020809104026020016040519081016040528092919081815260200182805460018160011615610100020316600290048015610fcd5780601f10610fa257610100808354040283529160200191610fcd565b820191906000526020600020905b815481529060010190602001808311610fb057829003601f168201915b505050505081565b60026020528060005260406000206000915054906101000a900473ffffffffffffffffffffffffffffffffffffffff1681565b6005818154811061101557fe5b90600052602060002090600202016000915090508060000154908060010154905082565b60608060026040519080825280601f01601f1916602001820160405280156110705781602001600182028038833980820191505090505b50905060008090508460f81b82828060010193508151811061108e57fe5b60200101907effffffffffffffffffffffffffffffffffffffffffffffffffffffffffffff1916908160001a9053508360f81b8282806001019350815181106110d357fe5b60200101907effffffffffffffffffffffffffffffffffffffffffffffffffffffffffffff1916908160001a905350819250505092915050565b60008060003373ffffffffffffffffffffffffffffffffffffffff1673ffffffffffffffffffffffffffffffffffffffff1681526020019081526020016000208054600181600116156101000203166002900490501461116c57600080fd5b600073ffffffffffffffffffffffffffffffffffffffff16600260008560ff1660ff16815260200190815260200160002060009054906101000a900473ffffffffffffffffffffffffffffffffffffffff1673ffffffffffffffffffffffffffffffffffffffff16146111de57600080fd5b60008560ff1614156112b957600073ffffffffffffffffffffffffffffffffffffffff16600160008660ff1660ff16815260200190815260200160002060009054906101000a900473ffffffffffffffffffffffffffffffffffffffff1673ffffffffffffffffffffffffffffffffffffffff161461125c57600080fd5b33600160008660ff1660ff16815260200190815260200160002060006101000a81548173ffffffffffffffffffffffffffffffffffffffff021916908373ffffffffffffffffffffffffffffffffffffffff16021790555061146f565b60606112c6858533612401565b905060011515611317828560001b8560001b600160008b60ff1660ff16815260200190815260200160002060009054906101000a900473ffffffffffffffffffffffffffffffffffffffff166116dd565b15151461132357600080fd5b600080905060008090505b60058054905081101561139c57846005828154811061134957fe5b9060005260206000209060020201600001541480156113855750836005828154811061137157fe5b906000526020600020906002020160010154145b1561138f57600191505b808060010191505061132e565b5060008114611413576040517f08c379a000000000000000000000000000000000000000000000000000000000815260040180806020018281038252600b8152602001807f7469636b6574207573656400000000000000000000000000000000000000000081525060200191505060405180910390fd5b600560405180604001604052808681526020018581525090806001815401808255809150509060018203906000526020600020906002020160009091929091909150600082015181600001556020820151816001015550505050505b33600260008560ff1660ff16815260200190815260200160002060006101000a81548173ffffffffffffffffffffffffffffffffffffffff021916908373ffffffffffffffffffffffffffffffffffffffff1602179055506114d233858561166e565b5050505050565b60603373ffffffffffffffffffffffffffffffffffffffff16600160008460ff1660ff16815260200190815260200160002060009054906101000a900473ffffffffffffffffffffffffffffffffffffffff1673ffffffffffffffffffffffffffffffffffffffff16146115b5576040517f08c379a000000000000000000000000000000000000000000000000000000000815260040180806020018281038252601a8152602001807f796f7520617265206e6f7420506c61746f6f6e204c656164657200000000000081525060200191505060405180910390fd5b600460008360ff1660ff1681526020019081526020016000208054600181600116156101000203166002900480601f0160208091040260200160405190810160405280929190818152602001828054600181600116156101000203166002900480156116625780601f1061163757610100808354040283529160200191611662565b820191906000526020600020905b81548152906001019060200180831161164557829003601f168201915b50505050509050919050565b6116788282611039565b6000808573ffffffffffffffffffffffffffffffffffffffff1673ffffffffffffffffffffffffffffffffffffffff16815260200190815260200160002090805190602001906116c992919061255d565b50505050565b600060208201519050919050565b600080858051906020012090506000601b90508373ffffffffffffffffffffffffffffffffffffffff1660018383898960405160008152602001604052604051808581526020018460ff1660ff1681526020018381526020018281526020019450505050506020604051602081039080840390855afa158015611764573d6000803e3d6000fd5b5050506020604051035173ffffffffffffffffffffffffffffffffffffffff16148061182457508373ffffffffffffffffffffffffffffffffffffffff1660018360018401898960405160008152602001604052604051808581526020018460ff1660ff1681526020018381526020018281526020019450505050506020604051602081039080840390855afa158015611802573d6000803e3d6000fd5b5050506020604051035173ffffffffffffffffffffffffffffffffffffffff16145b156118345760019250505061183b565b6000925050505b949350505050565b60046020528060005260406000206000915090508054600181600116156101000203166002900480601f0160208091040260200160405190810160405280929190818152602001828054600181600116156101000203166002900480156118eb5780601f106118c0576101008083540402835291602001916118eb565b820191906000526020600020905b8154815290600101906020018083116118ce57829003601f168201915b505050505081565b600160008460ff1660ff16815260200190815260200160002060009054906101000a900473ffffffffffffffffffffffffffffffffffffffff1673ffffffffffffffffffffffffffffffffffffffff16600260008660ff1660ff16815260200190815260200160002060009054906101000a900473ffffffffffffffffffffffffffffffffffffffff1673ffffffffffffffffffffffffffffffffffffffff1614611a06576040517f08c379a000000000000000000000000000000000000000000000000000000000815260040180806020018281038252601a8152602001807f796f7520617265206e6f7420506c61746f6f6e204c656164657200000000000081525060200191505060405180910390fd5b6000600260008660ff1660ff16815260200190815260200160002060009054906101000a900473ffffffffffffffffffffffffffffffffffffffff1690506060600460008560ff1660ff1681526020019081526020016000208054600181600116156101000203166002900480601f016020809104026020016040519081016040528092919081815260200182805460018160011615610100020316600290048015611af35780601f10611ac857610100808354040283529160200191611af3565b820191906000526020600020905b815481529060010190602001808311611ad657829003601f168201915b505050505090506060611b0682856122b8565b905080600460008760ff1660ff1681526020019081526020016000209080519060200190611b359291906125dd565b5050505050505050565b600260008260ff1660ff16815260200190815260200160002060009054906101000a900473ffffffffffffffffffffffffffffffffffffffff1673ffffffffffffffffffffffffffffffffffffffff163373ffffffffffffffffffffffffffffffffffffffff1614611bb057600080fd5b6000600260008360ff1660ff16815260200190815260200160002060009054906101000a900473ffffffffffffffffffffffffffffffffffffffff1690506000600260008460ff1660ff16815260200190815260200160002060006101000a81548173ffffffffffffffffffffffffffffffffffffffff021916908373ffffffffffffffffffffffffffffffffffffffff1602179055506000808273ffffffffffffffffffffffffffffffffffffffff1673ffffffffffffffffffffffffffffffffffffffff1681526020019081526020016000206000611c91919061265d565b505050565b6000600260008560ff1660ff16815260200190815260200160002060009054906101000a900473ffffffffffffffffffffffffffffffffffffffff169050600080600160008660ff1660ff16815260200190815260200160002060009054906101000a900473ffffffffffffffffffffffffffffffffffffffff1673ffffffffffffffffffffffffffffffffffffffff1673ffffffffffffffffffffffffffffffffffffffff1681526020019081526020016000206000815460018160011615610100020316600290048110611d6857fe5b815460011615611d875790600052602060002090602091828204019190065b9054901a7f0100000000000000000000000000000000000000000000000000000000000000027effffffffffffffffffffffffffffffffffffffffffffffffffffffffffffff19166000808373ffffffffffffffffffffffffffffffffffffffff1673ffffffffffffffffffffffffffffffffffffffff1681526020019081526020016000206000815460018160011615610100020316600290048110611e2a57fe5b815460011615611e495790600052602060002090602091828204019190065b9054901a7f0100000000000000000000000000000000000000000000000000000000000000027effffffffffffffffffffffffffffffffffffffffffffffffffffffffffffff191614611f04576040517f08c379a000000000000000000000000000000000000000000000000000000000815260040180806020018281038252601a8152602001807f6e6f742062656c6f6e6720746f207468697320506c61746f6f6e00000000000081525060200191505060405180910390fd5b6060600360008560ff1660ff1681526020019081526020016000208054600181600116156101000203166002900480601f016020809104026020016040519081016040528092919081815260200182805460018160011615610100020316600290048015611fb35780601f10611f8857610100808354040283529160200191611fb3565b820191906000526020600020905b815481529060010190602001808311611f9657829003601f168201915b505050505090506060611fc682856122b8565b905080600360008760ff1660ff1681526020019081526020016000209080519060200190611ff59291906125dd565b50505050505050565b60606000600160008460ff1660ff16815260200190815260200160002060009054906101000a900473ffffffffffffffffffffffffffffffffffffffff1690506000808273ffffffffffffffffffffffffffffffffffffffff1673ffffffffffffffffffffffffffffffffffffffff168152602001908152602001600020600081546001816001161561010002031660029004811061209957fe5b8154600116156120b85790600052602060002090602091828204019190065b9054901a7f0100000000000000000000000000000000000000000000000000000000000000027effffffffffffffffffffffffffffffffffffffffffffffffffffffffffffff19166000803373ffffffffffffffffffffffffffffffffffffffff1673ffffffffffffffffffffffffffffffffffffffff168152602001908152602001600020600081546001816001161561010002031660029004811061215b57fe5b81546001161561217a5790600052602060002090602091828204019190065b9054901a7f0100000000000000000000000000000000000000000000000000000000000000027effffffffffffffffffffffffffffffffffffffffffffffffffffffffffffff1916146121cc57600080fd5b600360008460ff1660ff1681526020019081526020016000208054600181600116156101000203166002900480601f0160208091040260200160405190810160405280929190818152602001828054600181600116156101000203166002900480156122795780601f1061224e57610100808354040283529160200191612279565b820191906000526020600020905b81548152906001019060200180831161225c57829003601f168201915b5050505050915050919050565b606060405182741400000000000000000000000000000000000000001860148201526034810160405280915050919050565b6060808390506060839050606081518351016040519080825280601f01601f1916602001820160405280156122fc5781602001600182028038833980820191505090505b5090506060819050600080905060008090505b855181101561237d5785818151811061232457fe5b602001015160f81c60f81b83838060010194508151811061234157fe5b60200101907effffffffffffffffffffffffffffffffffffffffffffffffffffffffffffff1916908160001a905350808060010191505061230f565b5060008090505b84518110156123f25784818151811061239957fe5b602001015160f81c60f81b8383806001019450815181106123b657fe5b60200101907effffffffffffffffffffffffffffffffffffffffffffffffffffffffffffff1916908160001a9053508080600101915050612384565b50829550505050505092915050565b60608061240d83612286565b9050606060166040519080825280601f01601f1916602001820160405280156124455781602001600182028038833980820191505090505b50905060008090508660f81b82828060010193508151811061246357fe5b60200101907effffffffffffffffffffffffffffffffffffffffffffffffffffffffffffff1916908160001a9053508560f81b8282806001019350815181106124a857fe5b60200101907effffffffffffffffffffffffffffffffffffffffffffffffffffffffffffff1916908160001a9053506000809050600090505b601481101561254f578381815181106124f657fe5b602001015160f81c60f81b83838060010194508151811061251357fe5b60200101907effffffffffffffffffffffffffffffffffffffffffffffffffffffffffffff1916908160001a90535080806001019150506124e1565b829450505050509392505050565b828054600181600116156101000203166002900490600052602060002090601f016020900481019282601f1061259e57805160ff19168380011785556125cc565b828001600101855582156125cc579182015b828111156125cb5782518255916020019190600101906125b0565b5b5090506125d991906126a5565b5090565b828054600181600116156101000203166002900490600052602060002090601f016020900481019282601f1061261e57805160ff191683800117855561264c565b8280016001018555821561264c579182015b8281111561264b578251825591602001919060010190612630565b5b50905061265991906126a5565b5090565b50805460018160011615610100020316600290046000825580601f1061268357506126a2565b601f0160209004906000526020600020908101906126a191906126a5565b5b50565b6126c791905b808211156126c35760008160009055506001016126ab565b5090565b9056fea265627a7a7231582031a9a405cafd7c3a6e160c32affc9c90808046f0d5c2f08ad865528023d22ad364736f6c634300050c0032",
  "source": "pragma solidity ^0.5.0;\n\ncontract BAVPM {\n    \n\tmapping (address => bytes) public ids ;\n\tmapping (uint8 => address) public PlatoonIDtoPL  ; \n\tmapping (uint8 => address) public PlatoonMember ;\n\t\n\tmapping (uint8 => string ) public intraMessage ;\n\tmapping (uint8 => string ) public message;\n\t\n\t\n\tstruct Ticket{\n\t    uint256 r;\n\t    uint256 s;\n\t}\n\tTicket[] public tickets;\n\n  \tconstructor() public payable\n   \t{\n   \t    \n   \t}\n\t\n\tmodifier ControlOf(uint8 sender, uint8 receiver) {\n\t\taddress addrSender   = PlatoonMember[sender  ] ;\n\t\taddress addrReceiver = PlatoonMember[receiver] ;\n\n\t\trequire(addrSender   != 0x0000000000000000000000000000000000000000,\"addrSender == 0\");\n\t\trequire(addrReceiver != 0x0000000000000000000000000000000000000000,\"addrReceiver == 0\");\n\t\trequire(ids[addrSender][0] == ids[addrReceiver][0],\"ids s and r not equal\");\n\t    \n\t\t_ ;\n\t}\n\n\tmodifier OnlyConcernedObject (uint8 addr) {\n\t\trequire(PlatoonMember[addr] == msg.sender ,\"sender is not BAVPM member\");\n\t    \n\t\t_ ;\n\t}\n//node\n\tfunction BAVPM_AddNode (uint8 _category, uint8 _PlatoonID, uint8 _id, uint256 _r, uint256 _s) public payable\n\t{\n\t\trequire(bytes(ids[msg.sender]).length == 0);\n\t\trequire(PlatoonMember [_id] == 0x0000000000000000000000000000000000000000);\n\n\t\tif (_category == 0) {\n\t\t\trequire(PlatoonIDtoPL[_PlatoonID] == 0x0000000000000000000000000000000000000000);\n\t\t    PlatoonIDtoPL [_PlatoonID] = msg.sender ;\n\t\t    \n\t\t} else {\n\t\t    //verify ticket\n\t\t\tbytes memory inputData = BAVPM_BytesConcat(_PlatoonID, _id, msg.sender) ;\n\t    \trequire(BAVPM_Verify (inputData, bytes32(_r), bytes32(_s), PlatoonIDtoPL[_PlatoonID]) == true);\n    \t\tuint k=0;\n    \t\tfor(uint i=0;i<tickets.length;i++){\n    \t\t    if(tickets[i].r==_r && tickets[i].s==_s){\n    \t\t        k=1;\n    \t\t    }\n    \t\t}\n    \t\trequire(k==0,\"ticket used\");\n    \t\ttickets.push(Ticket({r:_r,s:_s}));\n\t\t}\n\t\tPlatoonMember [_id] = msg.sender;\n\t\tBAVPM_SaveNode(msg.sender, _PlatoonID, _id) ;\n\t}\n\tfunction BAVPM_SaveNode(address _addr, uint8 _PlatoonID, uint8 _id) public {\n\t\tids[_addr] = BAVPM_Concat2Bytes(_PlatoonID, _id) ;\n\t}\n    function removeNode(uint8 _PlatoonID, uint8 _id) public{\n        require( msg.sender == PlatoonMember[_id]);\n        address _addr =PlatoonMember [_id];\n        PlatoonMember [_id] =0x0000000000000000000000000000000000000000;\n        delete ids[_addr] ;\n    }\n//communicate in Platoon\n    function BAVPM_Send ( uint8 _sender,uint8 _PlatoonID, string memory msg)  public \n\t{\n\t    address sender=PlatoonMember[_sender];\n\t    require(ids[sender][0]==ids[PlatoonIDtoPL[_PlatoonID]][0],\"not belong to this Platoon\");\n\t    string memory _str=\tintraMessage[_PlatoonID]  ;\n\t    string memory _ss=strConcat(_str, msg);\n\t    intraMessage[_PlatoonID]=_ss;\n    }\n    function BAVPM_ReadMSG (uint8 PlatoonID)  public view returns (string memory) \n\t{   address PlatoonLeader = PlatoonIDtoPL[PlatoonID];\n\t    require(ids[msg.sender][0]==ids[PlatoonLeader][0]);\n\t\treturn intraMessage[PlatoonID];\n   \t}\n//communicate with other Platoon\n    function sendToOtherPlatoon(uint8 sender,uint8 grpFrom ,uint8 PlatoonIDTo,string memory msg) public{\n        require( PlatoonMember[sender] ==PlatoonIDtoPL[grpFrom],\"you are not Platoon Leader\");\n        \n        address sender=PlatoonMember[sender];\n\t    string memory _str=\tmessage[PlatoonIDTo]  ;\n\t    string memory _ss=strConcat(_str, msg);\n\t    message[PlatoonIDTo]=_ss;\n    }\n    function readMsgFromOtherPlatoon(uint8 myPlatoonID)public view returns(string memory){\n        require(PlatoonIDtoPL[myPlatoonID]==msg.sender,\"you are not Platoon Leader\");\n        return  message[myPlatoonID];\n    }\n//other tools\n\tfunction BAVPM_Concat2Bytes (uint8 v1, uint8 v2) public returns (bytes memory) {\n\t\tbytes memory res = new bytes(2) ;\n\t\t\n\t\tuint i = 0 ;\n\t\tres[i++] = byte(v1) ;\n\t\tres[i++] = byte(v2) ;\n\t\t\n\t\treturn res ;\n\t}\n\tfunction BAVPM_Verify (bytes memory inputData, bytes32 _r, bytes32 _s, address PlatoonLeaderAddr)\n\t\tpublic returns (bool){\n        \tbytes32 hash = keccak256(inputData) ;\n        \tuint8   v    = 27 ;\n\n        \tif ((ecrecover(hash, v, _r, _s) == PlatoonLeaderAddr) || (ecrecover(hash, v+1, _r, _s) == PlatoonLeaderAddr)) \n            \treturn true ;\n        \telse\n            \treturn false ;\n\t}\n\tfunction BAVPM_BytesConcat(uint8 v1, uint8 v2, address addr) internal returns (bytes memory)\n\t{\n\t    bytes memory baddr = BAVPM_FromAddressToBytes(addr) ;\n\t\tbytes memory res   = new bytes (1 + 1 + 20) ;\n        \n\t\tuint i = 0 ;\n\t\tres[i++] = byte(v1) ;\n\t\tres[i++] = byte(v2) ;\n\t\tuint j = 0 ;\n\t\tfor (j = 0; j < 20; j++)\n\t\t\tres[i++] = baddr[j] ;\n\t\n\t\treturn res ;\n\t}\n\tfunction BAVPM_FromAddressToBytes(address a) public  view returns (bytes memory b) {\n        assembly {\n\t\t\tlet m := mload(0x40)\n\t\t\tmstore(add(m, 20), xor(0x140000000000000000000000000000000000000000, a))\n\t\t\tmstore(0x40, add(m, 52))\n\t\t\tb := m\n        }\n    }\n    function BAVPM_FromBytesToBytes32(bytes memory src) public returns (bytes32 res) {\n        assembly {\n            res := mload(add(src, 32))\n        }\n        \n    }\n    function strConcat(string memory _a, string memory _b) public returns (string memory){\n        bytes memory _ba = bytes(_a);\n        bytes memory _bb = bytes(_b);\n        string memory ret = new string(_ba.length + _bb.length );\n        bytes memory bret = bytes(ret);\n        uint k = 0;\n        for (uint i = 0; i < _ba.length; i++)bret[k++] = _ba[i];\n        for (uint i = 0; i < _bb.length; i++) bret[k++] = _bb[i];\n        return string(ret);\n   } \n}\n",
  "sourcePath": "/home/louis/BAVPM/ContractTruffle/contracts/BAVPM.sol",
  "compiler": {
    "name": "solc",
    "version": "0.5.12+commit.7709ece9.Emscripten.clang"
  },
  "schemaVersion": "3.0.19",
  "updatedAt": "2019-11-23T10:59:53.556Z",
  "networkType": "ethereum",
  "devdoc": {
    "methods": {}
  },
  "userdoc": {
    "methods": {}
  }
}