{
  "contractName": "BCTrustV2",
  "abi": [
    {
      "inputs": [],
      "payable": true,
      "stateMutability": "payable",
      "type": "constructor"
    },
    {
      "constant": true,
      "inputs": [
        {
          "internalType": "uint8",
          "name": "",
          "type": "uint8"
        }
      ],
      "name": "BCTrustMember",
      "outputs": [
        {
          "internalType": "address",
          "name": "",
          "type": "address"
        }
      ],
      "payable": false,
      "stateMutability": "view",
      "type": "function"
    },
    {
      "constant": true,
      "inputs": [
        {
          "internalType": "uint8",
          "name": "",
          "type": "uint8"
        }
      ],
      "name": "boxes",
      "outputs": [
        {
          "internalType": "string",
          "name": "",
          "type": "string"
        }
      ],
      "payable": false,
      "stateMutability": "view",
      "type": "function"
    },
    {
      "constant": true,
      "inputs": [
        {
          "internalType": "uint8",
          "name": "",
          "type": "uint8"
        }
      ],
      "name": "grpIdMasters",
      "outputs": [
        {
          "internalType": "address",
          "name": "",
          "type": "address"
        }
      ],
      "payable": false,
      "stateMutability": "view",
      "type": "function"
    },
    {
      "constant": true,
      "inputs": [
        {
          "internalType": "address",
          "name": "",
          "type": "address"
        }
      ],
      "name": "ids",
      "outputs": [
        {
          "internalType": "bytes",
          "name": "",
          "type": "bytes"
        }
      ],
      "payable": false,
      "stateMutability": "view",
      "type": "function"
    },
    {
      "constant": true,
      "inputs": [
        {
          "internalType": "uint8",
          "name": "",
          "type": "uint8"
        }
      ],
      "name": "message",
      "outputs": [
        {
          "internalType": "string",
          "name": "",
          "type": "string"
        }
      ],
      "payable": false,
      "stateMutability": "view",
      "type": "function"
    },
    {
      "constant": true,
      "inputs": [
        {
          "internalType": "uint256",
          "name": "",
          "type": "uint256"
        }
      ],
      "name": "tickets",
      "outputs": [
        {
          "internalType": "uint256",
          "name": "r",
          "type": "uint256"
        },
        {
          "internalType": "uint256",
          "name": "s",
          "type": "uint256"
        }
      ],
      "payable": false,
      "stateMutability": "view",
      "type": "function"
    },
    {
      "constant": false,
      "inputs": [
        {
          "internalType": "uint8",
          "name": "_category",
          "type": "uint8"
        },
        {
          "internalType": "uint8",
          "name": "_grpId",
          "type": "uint8"
        },
        {
          "internalType": "uint8",
          "name": "_id",
          "type": "uint8"
        },
        {
          "internalType": "uint256",
          "name": "_r",
          "type": "uint256"
        },
        {
          "internalType": "uint256",
          "name": "_s",
          "type": "uint256"
        }
      ],
      "name": "BCTrustV2_AddNode",
      "outputs": [],
      "payable": true,
      "stateMutability": "payable",
      "type": "function"
    },
    {
      "constant": false,
      "inputs": [
        {
          "internalType": "address",
          "name": "_addr",
          "type": "address"
        },
        {
          "internalType": "uint8",
          "name": "_grpId",
          "type": "uint8"
        },
        {
          "internalType": "uint8",
          "name": "_id",
          "type": "uint8"
        }
      ],
      "name": "BCTrustV2_SaveNode",
      "outputs": [],
      "payable": false,
      "stateMutability": "nonpayable",
      "type": "function"
    },
    {
      "constant": false,
      "inputs": [
        {
          "internalType": "uint8",
          "name": "_grpId",
          "type": "uint8"
        },
        {
          "internalType": "uint8",
          "name": "_id",
          "type": "uint8"
        }
      ],
      "name": "removeNode",
      "outputs": [],
      "payable": false,
      "stateMutability": "nonpayable",
      "type": "function"
    },
    {
      "constant": false,
      "inputs": [
        {
          "internalType": "uint8",
          "name": "_sender",
          "type": "uint8"
        },
        {
          "internalType": "uint8",
          "name": "_grpId",
          "type": "uint8"
        },
        {
          "internalType": "string",
          "name": "msg",
          "type": "string"
        }
      ],
      "name": "BCTrustV2_Send",
      "outputs": [],
      "payable": false,
      "stateMutability": "nonpayable",
      "type": "function"
    },
    {
      "constant": true,
      "inputs": [
        {
          "internalType": "uint8",
          "name": "grpid",
          "type": "uint8"
        }
      ],
      "name": "BCTrustV2_ReadMSG",
      "outputs": [
        {
          "internalType": "string",
          "name": "",
          "type": "string"
        }
      ],
      "payable": false,
      "stateMutability": "view",
      "type": "function"
    },
    {
      "constant": false,
      "inputs": [
        {
          "internalType": "uint8",
          "name": "sender",
          "type": "uint8"
        },
        {
          "internalType": "uint8",
          "name": "grpFrom",
          "type": "uint8"
        },
        {
          "internalType": "uint8",
          "name": "grpIdTo",
          "type": "uint8"
        },
        {
          "internalType": "string",
          "name": "msg",
          "type": "string"
        }
      ],
      "name": "sendToOtherGroup",
      "outputs": [],
      "payable": false,
      "stateMutability": "nonpayable",
      "type": "function"
    },
    {
      "constant": true,
      "inputs": [
        {
          "internalType": "uint8",
          "name": "mygrpId",
          "type": "uint8"
        }
      ],
      "name": "readMsgFromOtherGroup",
      "outputs": [
        {
          "internalType": "string",
          "name": "",
          "type": "string"
        }
      ],
      "payable": false,
      "stateMutability": "view",
      "type": "function"
    },
    {
      "constant": false,
      "inputs": [
        {
          "internalType": "uint8",
          "name": "v1",
          "type": "uint8"
        },
        {
          "internalType": "uint8",
          "name": "v2",
          "type": "uint8"
        }
      ],
      "name": "BCTrustV2_Concat2Bytes",
      "outputs": [
        {
          "internalType": "bytes",
          "name": "",
          "type": "bytes"
        }
      ],
      "payable": false,
      "stateMutability": "nonpayable",
      "type": "function"
    },
    {
      "constant": false,
      "inputs": [
        {
          "internalType": "bytes",
          "name": "inputData",
          "type": "bytes"
        },
        {
          "internalType": "bytes32",
          "name": "_r",
          "type": "bytes32"
        },
        {
          "internalType": "bytes32",
          "name": "_s",
          "type": "bytes32"
        },
        {
          "internalType": "address",
          "name": "masterAddr",
          "type": "address"
        }
      ],
      "name": "BCTrustV2_Verify",
      "outputs": [
        {
          "internalType": "bool",
          "name": "",
          "type": "bool"
        }
      ],
      "payable": false,
      "stateMutability": "nonpayable",
      "type": "function"
    },
    {
      "constant": true,
      "inputs": [
        {
          "internalType": "address",
          "name": "a",
          "type": "address"
        }
      ],
      "name": "BCTrustV2_FromAddressToBytes",
      "outputs": [
        {
          "internalType": "bytes",
          "name": "b",
          "type": "bytes"
        }
      ],
      "payable": false,
      "stateMutability": "view",
      "type": "function"
    },
    {
      "constant": false,
      "inputs": [
        {
          "internalType": "bytes",
          "name": "src",
          "type": "bytes"
        }
      ],
      "name": "BCTrustV2_FromBytesToBytes32",
      "outputs": [
        {
          "internalType": "bytes32",
          "name": "res",
          "type": "bytes32"
        }
      ],
      "payable": false,
      "stateMutability": "nonpayable",
      "type": "function"
    },
    {
      "constant": false,
      "inputs": [
        {
          "internalType": "string",
          "name": "_a",
          "type": "string"
        },
        {
          "internalType": "string",
          "name": "_b",
          "type": "string"
        }
      ],
      "name": "strConcat",
      "outputs": [
        {
          "internalType": "string",
          "name": "",
          "type": "string"
        }
      ],
      "payable": false,
      "stateMutability": "nonpayable",
      "type": "function"
    }
  ],
  "bytecode": "0x60806040526126ff806100136000396000f3fe6080604052600436106101095760003560e01c8063a54ee5a511610095578063d67a196e11610064578063d67a196e146109d6578063f0bed38014610a21578063f0d708b914610aeb578063fb2a263814610b56578063ff74927b14610c6a57610109565b8063a54ee5a514610726578063b466536a146107dd578063b90954c814610894578063d5290d8e1461091257610109565b806389afda78116100dc57806389afda78146103c757806390a3e05e146104a357806392f7338a1461055a57806398d87db0146105b9578063a0d7ac52146106a857610109565b8063116d00b11461010e5780631847c06b146101f05780631acbe326146102ba57806350b4471214610371575b600080fd5b34801561011a57600080fd5b506101ee6004803603606081101561013157600080fd5b81019080803560ff169060200190929190803560ff1690602001909291908035906020019064010000000081111561016857600080fd5b82018360208201111561017a57600080fd5b8035906020019184600183028401116401000000008311171561019c57600080fd5b91908080601f016020809104026020016040519081016040528093929190818152602001838380828437600081840152601f19601f820116905080830192505050505050509192919290505050610e42565b005b3480156101fc57600080fd5b5061023f6004803603602081101561021357600080fd5b81019080803573ffffffffffffffffffffffffffffffffffffffff1690602001909291905050506111aa565b6040518080602001828103825283818151815260200191508051906020019080838360005b8381101561027f578082015181840152602081019050610264565b50505050905090810190601f1680156102ac5780820380516001836020036101000a031916815260200191505b509250505060405180910390f35b3480156102c657600080fd5b506102f6600480360360208110156102dd57600080fd5b81019080803560ff16906020019092919050505061125a565b6040518080602001828103825283818151815260200191508051906020019080838360005b8381101561033657808201518184015260208101905061031b565b50505050905090810190601f1680156103635780820380516001836020036101000a031916815260200191505b509250505060405180910390f35b34801561037d57600080fd5b506103aa6004803603602081101561039457600080fd5b81019080803590602001909291905050506113ef565b604051808381526020018281526020019250505060405180910390f35b3480156103d357600080fd5b5061048d600480360360208110156103ea57600080fd5b810190808035906020019064010000000081111561040757600080fd5b82018360208201111561041957600080fd5b8035906020019184600183028401116401000000008311171561043b57600080fd5b91908080601f016020809104026020016040519081016040528093929190818152602001838380828437600081840152601f19601f820116905080830192505050505050509192919290505050611420565b6040518082815260200191505060405180910390f35b3480156104af57600080fd5b506104df600480360360208110156104c657600080fd5b81019080803560ff16906020019092919050505061142e565b6040518080602001828103825283818151815260200191508051906020019080838360005b8381101561051f578082015181840152602081019050610504565b50505050905090810190601f16801561054c5780820380516001836020036101000a031916815260200191505b509250505060405180910390f35b6105b7600480360360a081101561057057600080fd5b81019080803560ff169060200190929190803560ff169060200190929190803560ff16906020019092919080359060200190929190803590602001909291905050506114de565b005b3480156105c557600080fd5b506106a6600480360360808110156105dc57600080fd5b81019080803560ff169060200190929190803560ff169060200190929190803560ff1690602001909291908035906020019064010000000081111561062057600080fd5b82018360208201111561063257600080fd5b8035906020019184600183028401116401000000008311171561065457600080fd5b91908080601f016020809104026020016040519081016040528093929190818152602001838380828437600081840152601f19601f8201169050808301925050505050505091929192905050506118aa565b005b3480156106b457600080fd5b506106e4600480360360208110156106cb57600080fd5b81019080803560ff169060200190929190505050611af6565b604051808273ffffffffffffffffffffffffffffffffffffffff1673ffffffffffffffffffffffffffffffffffffffff16815260200191505060405180910390f35b34801561073257600080fd5b506107626004803603602081101561074957600080fd5b81019080803560ff169060200190929190505050611b29565b6040518080602001828103825283818151815260200191508051906020019080838360005b838110156107a2578082015181840152602081019050610787565b50505050905090810190601f1680156107cf5780820380516001836020036101000a031916815260200191505b509250505060405180910390f35b3480156107e957600080fd5b506108196004803603602081101561080057600080fd5b81019080803560ff169060200190929190505050611db1565b6040518080602001828103825283818151815260200191508051906020019080838360005b8381101561085957808201518184015260208101905061083e565b50505050905090810190601f1680156108865780820380516001836020036101000a031916815260200191505b509250505060405180910390f35b3480156108a057600080fd5b506108d0600480360360208110156108b757600080fd5b81019080803560ff169060200190929190505050611e61565b604051808273ffffffffffffffffffffffffffffffffffffffff1673ffffffffffffffffffffffffffffffffffffffff16815260200191505060405180910390f35b34801561091e57600080fd5b5061095b6004803603604081101561093557600080fd5b81019080803560ff169060200190929190803560ff169060200190929190505050611e94565b6040518080602001828103825283818151815260200191508051906020019080838360005b8381101561099b578082015181840152602081019050610980565b50505050905090810190601f1680156109c85780820380516001836020036101000a031916815260200191505b509250505060405180910390f35b3480156109e257600080fd5b50610a1f600480360360408110156109f957600080fd5b81019080803560ff169060200190929190803560ff169060200190929190505050611f68565b005b348015610a2d57600080fd5b50610a7060048036036020811015610a4457600080fd5b81019080803573ffffffffffffffffffffffffffffffffffffffff1690602001909291905050506120bf565b6040518080602001828103825283818151815260200191508051906020019080838360005b83811015610ab0578082015181840152602081019050610a95565b50505050905090810190601f168015610add5780820380516001836020036101000a031916815260200191505b509250505060405180910390f35b348015610af757600080fd5b50610b5460048036036060811015610b0e57600080fd5b81019080803573ffffffffffffffffffffffffffffffffffffffff169060200190929190803560ff169060200190929190803560ff1690602001909291905050506120f1565b005b348015610b6257600080fd5b50610c5060048036036080811015610b7957600080fd5b8101908080359060200190640100000000811115610b9657600080fd5b820183602082011115610ba857600080fd5b80359060200191846001830284011164010000000083111715610bca57600080fd5b91908080601f016020809104026020016040519081016040528093929190818152602001838380828437600081840152601f19601f8201169050808301925050505050505091929192908035906020019092919080359060200190929190803573ffffffffffffffffffffffffffffffffffffffff169060200190929190505050612152565b604051808215151515815260200191505060405180910390f35b348015610c7657600080fd5b50610dc760048036036040811015610c8d57600080fd5b8101908080359060200190640100000000811115610caa57600080fd5b820183602082011115610cbc57600080fd5b80359060200191846001830284011164010000000083111715610cde57600080fd5b91908080601f016020809104026020016040519081016040528093929190818152602001838380828437600081840152601f19601f82011690508083019250505050505050919291929080359060200190640100000000811115610d4157600080fd5b820183602082011115610d5357600080fd5b80359060200191846001830284011164010000000083111715610d7557600080fd5b91908080601f016020809104026020016040519081016040528093929190818152602001838380828437600081840152601f19601f8201169050808301925050505050505091929192905050506122b8565b6040518080602001828103825283818151815260200191508051906020019080838360005b83811015610e07578082015181840152602081019050610dec565b50505050905090810190601f168015610e345780820380516001836020036101000a031916815260200191505b509250505060405180910390f35b6000600260008560ff1660ff16815260200190815260200160002060009054906101000a900473ffffffffffffffffffffffffffffffffffffffff169050600080600160008660ff1660ff16815260200190815260200160002060009054906101000a900473ffffffffffffffffffffffffffffffffffffffff1673ffffffffffffffffffffffffffffffffffffffff1673ffffffffffffffffffffffffffffffffffffffff1681526020019081526020016000206000815460018160011615610100020316600290048110610f1457fe5b815460011615610f335790600052602060002090602091828204019190065b9054901a7f0100000000000000000000000000000000000000000000000000000000000000027effffffffffffffffffffffffffffffffffffffffffffffffffffffffffffff19166000808373ffffffffffffffffffffffffffffffffffffffff1673ffffffffffffffffffffffffffffffffffffffff1681526020019081526020016000206000815460018160011615610100020316600290048110610fd657fe5b815460011615610ff55790600052602060002090602091828204019190065b9054901a7f0100000000000000000000000000000000000000000000000000000000000000027effffffffffffffffffffffffffffffffffffffffffffffffffffffffffffff1916146110b0576040517f08c379a00000000000000000000000000000000000000000000000000000000081526004018080602001828103825260188152602001807f6e6f742062656c6f6e6720746f20746869732067726f7570000000000000000081525060200191505060405180910390fd5b6060600360008560ff1660ff1681526020019081526020016000208054600181600116156101000203166002900480601f01602080910402602001604051908101604052809291908181526020018280546001816001161561010002031660029004801561115f5780601f106111345761010080835404028352916020019161115f565b820191906000526020600020905b81548152906001019060200180831161114257829003601f168201915b50505050509050606061117282856122b8565b905080600360008760ff1660ff16815260200190815260200160002090805190602001906111a192919061255d565b50505050505050565b60006020528060005260406000206000915090508054600181600116156101000203166002900480601f0160208091040260200160405190810160405280929190818152602001828054600181600116156101000203166002900480156112525780601f1061122757610100808354040283529160200191611252565b820191906000526020600020905b81548152906001019060200180831161123557829003601f168201915b505050505081565b60603373ffffffffffffffffffffffffffffffffffffffff16600160008460ff1660ff16815260200190815260200160002060009054906101000a900473ffffffffffffffffffffffffffffffffffffffff1673ffffffffffffffffffffffffffffffffffffffff1614611336576040517f08c379a00000000000000000000000000000000000000000000000000000000081526004018080602001828103825260128152602001807f796f7520617265206e6f74206d6173746572000000000000000000000000000081525060200191505060405180910390fd5b600460008360ff1660ff1681526020019081526020016000208054600181600116156101000203166002900480601f0160208091040260200160405190810160405280929190818152602001828054600181600116156101000203166002900480156113e35780601f106113b8576101008083540402835291602001916113e3565b820191906000526020600020905b8154815290600101906020018083116113c657829003601f168201915b50505050509050919050565b600581815481106113fc57fe5b90600052602060002090600202016000915090508060000154908060010154905082565b600060208201519050919050565b60036020528060005260406000206000915090508054600181600116156101000203166002900480601f0160208091040260200160405190810160405280929190818152602001828054600181600116156101000203166002900480156114d65780601f106114ab576101008083540402835291602001916114d6565b820191906000526020600020905b8154815290600101906020018083116114b957829003601f168201915b505050505081565b60008060003373ffffffffffffffffffffffffffffffffffffffff1673ffffffffffffffffffffffffffffffffffffffff1681526020019081526020016000208054600181600116156101000203166002900490501461153d57600080fd5b600073ffffffffffffffffffffffffffffffffffffffff16600260008560ff1660ff16815260200190815260200160002060009054906101000a900473ffffffffffffffffffffffffffffffffffffffff1673ffffffffffffffffffffffffffffffffffffffff16146115af57600080fd5b60008560ff16141561168a57600073ffffffffffffffffffffffffffffffffffffffff16600160008660ff1660ff16815260200190815260200160002060009054906101000a900473ffffffffffffffffffffffffffffffffffffffff1673ffffffffffffffffffffffffffffffffffffffff161461162d57600080fd5b33600160008660ff1660ff16815260200190815260200160002060006101000a81548173ffffffffffffffffffffffffffffffffffffffff021916908373ffffffffffffffffffffffffffffffffffffffff160217905550611840565b6060611697858533612401565b9050600115156116e8828560001b8560001b600160008b60ff1660ff16815260200190815260200160002060009054906101000a900473ffffffffffffffffffffffffffffffffffffffff16612152565b1515146116f457600080fd5b600080905060008090505b60058054905081101561176d57846005828154811061171a57fe5b9060005260206000209060020201600001541480156117565750836005828154811061174257fe5b906000526020600020906002020160010154145b1561176057600191505b80806001019150506116ff565b50600081146117e4576040517f08c379a000000000000000000000000000000000000000000000000000000000815260040180806020018281038252600b8152602001807f7469636b6574207573656400000000000000000000000000000000000000000081525060200191505060405180910390fd5b600560405180604001604052808681526020018581525090806001815401808255809150509060018203906000526020600020906002020160009091929091909150600082015181600001556020820151816001015550505050505b33600260008560ff1660ff16815260200190815260200160002060006101000a81548173ffffffffffffffffffffffffffffffffffffffff021916908373ffffffffffffffffffffffffffffffffffffffff1602179055506118a33385856120f1565b5050505050565b600160008460ff1660ff16815260200190815260200160002060009054906101000a900473ffffffffffffffffffffffffffffffffffffffff1673ffffffffffffffffffffffffffffffffffffffff16600260008660ff1660ff16815260200190815260200160002060009054906101000a900473ffffffffffffffffffffffffffffffffffffffff1673ffffffffffffffffffffffffffffffffffffffff16146119bd576040517f08c379a00000000000000000000000000000000000000000000000000000000081526004018080602001828103825260128152602001807f796f7520617265206e6f74206d6173746572000000000000000000000000000081525060200191505060405180910390fd5b6000600260008660ff1660ff16815260200190815260200160002060009054906101000a900473ffffffffffffffffffffffffffffffffffffffff1690506060600460008560ff1660ff1681526020019081526020016000208054600181600116156101000203166002900480601f016020809104026020016040519081016040528092919081815260200182805460018160011615610100020316600290048015611aaa5780601f10611a7f57610100808354040283529160200191611aaa565b820191906000526020600020905b815481529060010190602001808311611a8d57829003601f168201915b505050505090506060611abd82856122b8565b905080600460008760ff1660ff1681526020019081526020016000209080519060200190611aec92919061255d565b5050505050505050565b60016020528060005260406000206000915054906101000a900473ffffffffffffffffffffffffffffffffffffffff1681565b60606000600160008460ff1660ff16815260200190815260200160002060009054906101000a900473ffffffffffffffffffffffffffffffffffffffff1690506000808273ffffffffffffffffffffffffffffffffffffffff1673ffffffffffffffffffffffffffffffffffffffff1681526020019081526020016000206000815460018160011615610100020316600290048110611bc457fe5b815460011615611be35790600052602060002090602091828204019190065b9054901a7f0100000000000000000000000000000000000000000000000000000000000000027effffffffffffffffffffffffffffffffffffffffffffffffffffffffffffff19166000803373ffffffffffffffffffffffffffffffffffffffff1673ffffffffffffffffffffffffffffffffffffffff1681526020019081526020016000206000815460018160011615610100020316600290048110611c8657fe5b815460011615611ca55790600052602060002090602091828204019190065b9054901a7f0100000000000000000000000000000000000000000000000000000000000000027effffffffffffffffffffffffffffffffffffffffffffffffffffffffffffff191614611cf757600080fd5b600360008460ff1660ff1681526020019081526020016000208054600181600116156101000203166002900480601f016020809104026020016040519081016040528092919081815260200182805460018160011615610100020316600290048015611da45780601f10611d7957610100808354040283529160200191611da4565b820191906000526020600020905b815481529060010190602001808311611d8757829003601f168201915b5050505050915050919050565b60046020528060005260406000206000915090508054600181600116156101000203166002900480601f016020809104026020016040519081016040528092919081815260200182805460018160011615610100020316600290048015611e595780601f10611e2e57610100808354040283529160200191611e59565b820191906000526020600020905b815481529060010190602001808311611e3c57829003601f168201915b505050505081565b60026020528060005260406000206000915054906101000a900473ffffffffffffffffffffffffffffffffffffffff1681565b60608060026040519080825280601f01601f191660200182016040528015611ecb5781602001600182028038833980820191505090505b50905060008090508460f81b828280600101935081518110611ee957fe5b60200101907effffffffffffffffffffffffffffffffffffffffffffffffffffffffffffff1916908160001a9053508360f81b828280600101935081518110611f2e57fe5b60200101907effffffffffffffffffffffffffffffffffffffffffffffffffffffffffffff1916908160001a905350819250505092915050565b600260008260ff1660ff16815260200190815260200160002060009054906101000a900473ffffffffffffffffffffffffffffffffffffffff1673ffffffffffffffffffffffffffffffffffffffff163373ffffffffffffffffffffffffffffffffffffffff1614611fd957600080fd5b6000600260008360ff1660ff16815260200190815260200160002060009054906101000a900473ffffffffffffffffffffffffffffffffffffffff1690506000600260008460ff1660ff16815260200190815260200160002060006101000a81548173ffffffffffffffffffffffffffffffffffffffff021916908373ffffffffffffffffffffffffffffffffffffffff1602179055506000808273ffffffffffffffffffffffffffffffffffffffff1673ffffffffffffffffffffffffffffffffffffffff16815260200190815260200160002060006120ba91906125dd565b505050565b606060405182741400000000000000000000000000000000000000001860148201526034810160405280915050919050565b6120fb8282611e94565b6000808573ffffffffffffffffffffffffffffffffffffffff1673ffffffffffffffffffffffffffffffffffffffff168152602001908152602001600020908051906020019061214c929190612625565b50505050565b600080858051906020012090506000601b90508373ffffffffffffffffffffffffffffffffffffffff1660018383898960405160008152602001604052604051808581526020018460ff1660ff1681526020018381526020018281526020019450505050506020604051602081039080840390855afa1580156121d9573d6000803e3d6000fd5b5050506020604051035173ffffffffffffffffffffffffffffffffffffffff16148061229957508373ffffffffffffffffffffffffffffffffffffffff1660018360018401898960405160008152602001604052604051808581526020018460ff1660ff1681526020018381526020018281526020019450505050506020604051602081039080840390855afa158015612277573d6000803e3d6000fd5b5050506020604051035173ffffffffffffffffffffffffffffffffffffffff16145b156122a9576001925050506122b0565b6000925050505b949350505050565b6060808390506060839050606081518351016040519080825280601f01601f1916602001820160405280156122fc5781602001600182028038833980820191505090505b5090506060819050600080905060008090505b855181101561237d5785818151811061232457fe5b602001015160f81c60f81b83838060010194508151811061234157fe5b60200101907effffffffffffffffffffffffffffffffffffffffffffffffffffffffffffff1916908160001a905350808060010191505061230f565b5060008090505b84518110156123f25784818151811061239957fe5b602001015160f81c60f81b8383806001019450815181106123b657fe5b60200101907effffffffffffffffffffffffffffffffffffffffffffffffffffffffffffff1916908160001a9053508080600101915050612384565b50829550505050505092915050565b60608061240d836120bf565b9050606060166040519080825280601f01601f1916602001820160405280156124455781602001600182028038833980820191505090505b50905060008090508660f81b82828060010193508151811061246357fe5b60200101907effffffffffffffffffffffffffffffffffffffffffffffffffffffffffffff1916908160001a9053508560f81b8282806001019350815181106124a857fe5b60200101907effffffffffffffffffffffffffffffffffffffffffffffffffffffffffffff1916908160001a9053506000809050600090505b601481101561254f578381815181106124f657fe5b602001015160f81c60f81b83838060010194508151811061251357fe5b60200101907effffffffffffffffffffffffffffffffffffffffffffffffffffffffffffff1916908160001a90535080806001019150506124e1565b829450505050509392505050565b828054600181600116156101000203166002900490600052602060002090601f016020900481019282601f1061259e57805160ff19168380011785556125cc565b828001600101855582156125cc579182015b828111156125cb5782518255916020019190600101906125b0565b5b5090506125d991906126a5565b5090565b50805460018160011615610100020316600290046000825580601f106126035750612622565b601f01602090049060005260206000209081019061262191906126a5565b5b50565b828054600181600116156101000203166002900490600052602060002090601f016020900481019282601f1061266657805160ff1916838001178555612694565b82800160010185558215612694579182015b82811115612693578251825591602001919060010190612678565b5b5090506126a191906126a5565b5090565b6126c791905b808211156126c35760008160009055506001016126ab565b5090565b9056fea265627a7a72315820ed402b09f57dadbd126b31ed9448a66d469013bb6e60ea1f64436e64a6b3f5b564736f6c634300050c0032",
  "source": "pragma solidity ^0.5.0;\n\ncontract BCTrustV2 {\n    \n\tmapping (address => bytes) public ids ;\n\tmapping (uint8 => address) public grpIdMasters  ; \n\tmapping (uint8 => address) public BCTrustMember ;\n\t\n\tmapping (uint8 => string ) public boxes ;  //\n\tmapping (uint8 => string ) public message;  //\n\t\n\t\n\tstruct Ticket{\n\t    uint256 r;\n\t    uint256 s;\n\t}\n\tTicket[] public tickets;\n\n  \tconstructor() public payable\n   \t{\n   \t    \n   \t}\n\t\n\tmodifier ControlOf(uint8 sender, uint8 receiver) {\n\t\taddress addrSender   = BCTrustMember[sender  ] ;\n\t\taddress addrReceiver = BCTrustMember[receiver] ;\n\n\t\trequire(addrSender   != 0x0000000000000000000000000000000000000000,\"addrSender == 0\");\n\t\trequire(addrReceiver != 0x0000000000000000000000000000000000000000,\"addrReceiver == 0\");\n\t\trequire(ids[addrSender][0] == ids[addrReceiver][0],\"ids s and r not equal\");\n\t    \n\t\t_ ;\n\t}\n\n\tmodifier OnlyConcernedObject (uint8 addr) {\n\t\trequire(BCTrustMember[addr] == msg.sender ,\"sender is not BCTrust member\");\n\t    \n\t\t_ ;\n\t}\n//node\n\tfunction BCTrustV2_AddNode (uint8 _category, uint8 _grpId, uint8 _id, uint256 _r, uint256 _s) public payable\n\t{\n\t\trequire(bytes(ids[msg.sender]).length == 0);\n\t\trequire(BCTrustMember [_id] == 0x0000000000000000000000000000000000000000);\n\n\t\tif (_category == 0) {\n\t\t\trequire(grpIdMasters[_grpId] == 0x0000000000000000000000000000000000000000);\n\t\t    grpIdMasters [_grpId] = msg.sender ;\n\t\t    \n\t\t} else {\n\t\t    //verify ticket\n\t\t\tbytes memory inputData = BCTrustV2_BytesConcat(_grpId, _id, msg.sender) ;\n\t    \trequire(BCTrustV2_Verify (inputData, bytes32(_r), bytes32(_s), grpIdMasters[_grpId]) == true);\n    \t\tuint k=0;\n    \t\tfor(uint i=0;i<tickets.length;i++){\n    \t\t    if(tickets[i].r==_r && tickets[i].s==_s){\n    \t\t        k=1;\n    \t\t    }\n    \t\t}\n    \t\trequire(k==0,\"ticket used\");\n    \t\ttickets.push(Ticket({r:_r,s:_s}));\n\t\t}\n\t\tBCTrustMember [_id] = msg.sender;\n\t\tBCTrustV2_SaveNode(msg.sender, _grpId, _id) ;\n\t}\n\tfunction BCTrustV2_SaveNode(address _addr, uint8 _grpId, uint8 _id) public {\n\t\tids[_addr] = BCTrustV2_Concat2Bytes(_grpId, _id) ;\n\t}\n    function removeNode(uint8 _grpId, uint8 _id) public{\n        require( msg.sender == BCTrustMember[_id]);\n        address _addr =BCTrustMember [_id];\n        BCTrustMember [_id] =0x0000000000000000000000000000000000000000;\n        delete ids[_addr] ;\n    }\n//communicate in group\n    function BCTrustV2_Send ( uint8 _sender,uint8 _grpId, string memory msg)  public \n\t{\n\t    address sender=BCTrustMember[_sender];\n\t    require(ids[sender][0]==ids[grpIdMasters[_grpId]][0],\"not belong to this group\");\n\t    string memory _str=\tboxes[_grpId]  ;\n\t    string memory _ss=strConcat(_str, msg);\n\t    boxes[_grpId]=_ss;\n    }\n    function BCTrustV2_ReadMSG (uint8 grpid)  public view returns (string memory) \n\t{   address master =grpIdMasters[grpid];\n\t    require(ids[msg.sender][0]==ids[master][0]);\n\t\treturn boxes[grpid];\n   \t}\n//communicate with other group\n    function sendToOtherGroup(uint8 sender,uint8 grpFrom ,uint8 grpIdTo,string memory msg) public{\n        require( BCTrustMember[sender] ==grpIdMasters[grpFrom],\"you are not master\");\n        \n        address sender=BCTrustMember[sender];\n\t    string memory _str=\tmessage[grpIdTo]  ;\n\t    string memory _ss=strConcat(_str, msg);\n\t    message[grpIdTo]=_ss;\n    }\n    function readMsgFromOtherGroup(uint8 mygrpId)public view returns(string memory){\n        require(grpIdMasters[mygrpId]==msg.sender,\"you are not master\");\n        return  message[mygrpId];\n    }\n//other tools\n\tfunction BCTrustV2_Concat2Bytes (uint8 v1, uint8 v2) public returns (bytes memory) {\n\t\tbytes memory res = new bytes(2) ;\n\t\t\n\t\tuint i = 0 ;\n\t\tres[i++] = byte(v1) ;\n\t\tres[i++] = byte(v2) ;\n\t\t\n\t\treturn res ;\n\t}\n\tfunction BCTrustV2_Verify (bytes memory inputData, bytes32 _r, bytes32 _s, address masterAddr)\n\t\tpublic returns (bool){\n        \tbytes32 hash = keccak256(inputData) ;\n        \tuint8   v    = 27 ;\n\n        \tif ((ecrecover(hash, v, _r, _s) == masterAddr) || (ecrecover(hash, v+1, _r, _s) == masterAddr)) \n            \treturn true ;\n        \telse\n            \treturn false ;\n\t}\n\tfunction BCTrustV2_BytesConcat(uint8 v1, uint8 v2, address addr) internal returns (bytes memory)\n\t{\n\t    bytes memory baddr = BCTrustV2_FromAddressToBytes(addr) ;\n\t\tbytes memory res   = new bytes (1 + 1 + 20) ;\n        \n\t\tuint i = 0 ;\n\t\tres[i++] = byte(v1) ;\n\t\tres[i++] = byte(v2) ;\n\t\tuint j = 0 ;\n\t\tfor (j = 0; j < 20; j++)\n\t\t\tres[i++] = baddr[j] ;\n\t\n\t\treturn res ;\n\t}\n\tfunction BCTrustV2_FromAddressToBytes(address a) public  view returns (bytes memory b) {\n        assembly {\n\t\t\tlet m := mload(0x40)\n\t\t\tmstore(add(m, 20), xor(0x140000000000000000000000000000000000000000, a))\n\t\t\tmstore(0x40, add(m, 52))\n\t\t\tb := m\n        }\n    }\n    function BCTrustV2_FromBytesToBytes32(bytes memory src) public returns (bytes32 res) {\n        assembly {\n            res := mload(add(src, 32))\n        }\n        \n    }\n    function strConcat(string memory _a, string memory _b) public returns (string memory){\n        bytes memory _ba = bytes(_a);\n        bytes memory _bb = bytes(_b);\n        string memory ret = new string(_ba.length + _bb.length );\n        bytes memory bret = bytes(ret);\n        uint k = 0;\n        for (uint i = 0; i < _ba.length; i++)bret[k++] = _ba[i];\n        for (uint i = 0; i < _bb.length; i++) bret[k++] = _bb[i];\n        return string(ret);\n   } \n}\n",
  "sourcePath": "/home/louis/BAVPM/ContractTruffle/contracts/BCTrustV2.sol",
  "compiler": {
    "name": "solc",
    "version": "0.5.12+commit.7709ece9.Emscripten.clang"
  },
  "schemaVersion": "3.0.19",
  "updatedAt": "2019-11-23T09:01:06.933Z",
  "devdoc": {
    "methods": {}
  },
  "userdoc": {
    "methods": {}
  }
}